{
  "contractName": "RandomNumbers",
  "abi": [
    {
      "constant": true,
      "inputs": [],
      "name": "returnValue",
      "outputs": [
        {
          "internalType": "uint256",
          "name": "",
          "type": "uint256"
        }
      ],
      "payable": false,
      "stateMutability": "view",
      "type": "function"
    }
  ],
  "bytecode": "0x6080604052348015600f57600080fd5b5060ee8061001e6000396000f3fe6080604052348015600f57600080fd5b506004361060285760003560e01c8063990c8f7914602d575b600080fd5b60336049565b6040518082815260200191505060405180910390f35b6000424433604051602001808481526020018381526020018273ffffffffffffffffffffffffffffffffffffffff1673ffffffffffffffffffffffffffffffffffffffff1660601b815260140193505050506040516020818303038152906040528051906020012060001c90509056fea265627a7a7231582095b0a9009cccfceb49413cc27ac1aad388cf95c15d1e5cee6cca261182bc836b64736f6c63430005110032",
  "source": "pragma solidity ^0.5.0;\n\ncontract RandomNumbers {\n\n    function returnValue() public view returns(uint){\n        return uint(keccak256(abi.encodePacked(block.timestamp,block.difficulty,\n            msg.sender)));\n    }\n}\n",
  "sourcePath": "/Users/zhijunzhao/nft_market/artblock-broker/contracts/Random.sol",
  "compiler": {
    "name": "solc",
    "version": "0.5.17+commit.d19bba13.Emscripten.clang"
  },
  "schemaVersion": "3.3.4",
  "updatedAt": "2022-04-02T10:46:19.008Z",
  "devdoc": {
    "methods": {}
  },
  "userdoc": {
    "methods": {}
  }
}